:020000020000FC
:0200000045C0F9
:1000040061D018957DD0189599D01895ACD01895D5
:10008C000FEF0DBF00E10EBF0FEF07BB00E008BB89
:10009C000AEA00936A000FE009BF09E705BD09E70A
:1000AC0003BF00E608BB4FE000E6042B08BB01E1F0
:1000BC00049F01BE03BC78948895FECF0F931F93C9
:1000CC000FB70F93403089F04A9500E6042B08BB1C
:1000DC0001E1049F01BE03BC19E156D00FE008BF3B
:1000EC000F910FBF1F910F9108950FE008BF0F9153
:1000FC000FBF1F910F9108950F931F930FB70F937D
:10010C004F3089F0439500E6042B08BB01E1049FB6
:10011C0001BE03BC19E138D00FE008BF0F910FBF2F
:10012C001F910F9108950FE008BF0F910FBF1F9102
:10013C000F9108950F931F930FB70F9340E000E6B4
:10014C00042B08BB01E1049F01BE03BC19E11CD0C8
:10015C000FE008BF0F910FBF1F910F9108950F93E0
:10016C001F930FB70F934FE000E6042B08BB01E180
:10017C00049F01BE03BC19E107D00FE008BF0F912B
:10018C000FBF1F910F9108951F932F933F9330EE44
:10019C002DEE2A95F1F73A95D9F71A95C1F73F91BB
:0601AC002F911F91089540
:00000001FF
