:020000020000FC
:0200000045C0F9
:10008C000FEF0DBF00E10EBF2224E0E7F2E0A0E18C
:10009C00B1E005910D9304910C93E2E7F2E0C2E11B
:1000AC00D1E00591099304910883000033D000003E
:1000BC00E4E7F2E0A4E1B1E005910D9304910C9317
:1000CC00E6E7F2E0C6E1D1E00591099304910883DB
:1000DC00000037D00000EAE7F2E0A8E1B1E00591BA
:1000EC000D93E8E7F2E005910D9304910C93EEE784
:1000FC00F2E0CBE1D1E005910993ECE7F2E0059158
:10010C00099304910883000033D00000000072D0E2
:10011C000000FFCF2224A0E2B1E02D922D922C9270
:10012C00A0E1B1E0C2E1D1E0E0E2F1E04D91599102
:10013C00540F51934C915881541F519308F4B08330
:10014C0008952224A4E2B1E02D922D922C92A4E1E8
:10015C00B1E0C6E1D1E0E4E2F1E04D915991541BDC
:10016C0051934C915881540B519308F4B0830895DA
:10017C003F924F921F920F922F92BF93AF93DF93A8
:10018C00CF93FF93EF931F932F932224A8E2B1E018
:10019C002D922D922D922D922D922C92CBE1D1E07D
:1001AC00E8E2F1E013E0A8E1B1E023E03D90488003
:1001BC00349C31904190030C141C3190321C4080C3
:1001CC00421C408232921292029231962A9571F719
:1001DC00329721961A9539F72F911F91EF91FF9134
:1001EC00CF91DF91AF91BF912F900F901F904F90B7
:1001FC003F900895E2E8F2E0A4E1B1E005910D939F
:10020C0004910C93E0E8F2E0C6E1D1E0059109938A
:10021C000491088396DFE4E2F1E0A0E1B1E0019102
:10022C000D9300810C93E4E8F2E0C2E1D1E005917A
:10023C000993049108836EDFE0E2F1E0A8E1B1E0FC
:10024C0001910D9301910D9300810C93E0E2F1E08B
:10025C00CBE1D1E0019109930191099300810883CD
:10026C0087DF0895BAFCFFFF20E4B9FCFFFFFF0015
:0A027C00FFFFFF00BAFC1920BB21B0
:00000001FF
