:020000020000FC
:0200000045C0F9
:0400380094D01895B3
:10008C000FEF0DBF00E10EBF0FEF07BB00E008BB89
:10009C000EE201BB0FEF02BBF9D104E00EBD04E090
:1000AC0007BF0FE00DBD02E40CBD622C78941DD08F
:1000BC0034D0C5D13ED000B3017D003D21F498D0A1
:1000CC007FE0AED1F7CF013C21F4A2D07FE0A8D1E4
:1000DC00F1CF013921F47AD17FE0A2D1EBCF0135F8
:1000EC0049F789D17FE09CD1E5CF0F930FB70F93E0
:1000FC00E4E7F4E0C0E0D1E005910993EC37E1F7D7
:10010C00ECE7F4E0C0E1D1E005910993EC38E1F7BC
:10011C00FCD10F910FBF0F9108950F930FB70F9351
:10012C0000B3017D003D21F40F910FBF0F91089595
:10013C00F4CF0F930FB70F930BD2ECE8F4E0C0E0C1
:10014C00D1E005910993E839E1F747D0DED10F9161
:10015C000FBF0F9108950F930FB70F9301E0602617
:10016C000FE00DBD02E40CBD0F910FBF0F91089570
:10017C000F930FB70F93062D0030E9F7062D0130C2
:10018C00E9F70F910FBF0F9108950F930FB70F93CE
:10019C00062D0030E9F700EF08BB062D0130E9F71A
:1001AC0000E108BB0F910FBF0F9108950F930FB78C
:1001BC000F93062D0030E9F700EF08BB062D013038
:1001CC00E9F7062D0030E9F7062D0130E9F700E1DB
:1001DC0008BB0F910FBF0F910895E0E0F2E0C0E172
:1001EC00D1E0A0E101910993A030AA95D9F7089527
:1001FC000F930FB70F93539400E1501609F408D0E6
:10020C00C52DD2E001E408830F910FBF0F91089523
:10021C000F930FB70F9300E108BB052D55240DD09C
:10022C005394A52DA017DCF3A017C9F300E008BB6D
:10023C0006D10F910FBF0F9108950F930FB70F9326
:10024C000FE00DBD02E40CBD622CC52DD2E008817F
:10025C00013421F49ADFAADF8BDFB4C0023431F40D
:10026C00A5DF93DF92DF91DF83DFACC0033431F481
:10027C009DDF8BDF9BDF89DF7BDFA4C0043429F497
:10028C0095DF83DF82DF74DF9DC0053419F47DDFD9
:10029C006FDF98C0063431F478DF77DF87DF75DFE6
:1002AC0067DF90C0073429F481DF80DF6EDF60DF09
:1002BC0089C0083431F469DF68DF67DF66DF58DF37
:1002CC0081C0093421F461DF60DF52DF7BC00A3466
:1002DC0031F45BDF6BDF6ADF69DF4ADF73C00B343D
:1002EC0029F464DF52DF62DF43DF6CC00C3431F47D
:1002FC004CDF5CDF4ADF49DF3BDF64C00D3421F4A7
:10030C0055DF54DF35DF5EC00E3421F44FDF3DDFA7
:10031C002FDF58C00F3429F449DF48DF47DF28DFCF
:10032C0051C0003531F431DF41DF40DF2EDF20DFFB
:10033C0049C0013531F43ADF39DF27DF37DF18DF09
:10034C0041C0023529F421DF31DF1FDF11DF3AC054
:10035C00033529F41ADF19DF18DF0ADF33C004353F
:10036C0019F424DF05DF2EC0053529F40EDF0DDF6F
:10037C001DDFFEDE27C0063531F407DF06DF05DFA3
:10038C0015DFF6DE1FC0073529F4FFDE0FDF0EDFA9
:10039C00EFDE18C0083531F409DFF7DEF6DE06DFD4
:1003AC00E7DE10C0093531F401DFEFDEFFDEFEDEE3
:1003BC00DFDE08C00A3531F4F9DEF8DEE6DEE5DE14
:1003CC00D7DE00C00F910FBF0F9108950F937F934D
:1003DC000FB70F93A0E1B1E0C52DD2E008810395D2
:1003EC000B3509F401E40883F8DEA2D00F910FBF9E
:1003FC007F910F9108950F937F930FB70F93A0E107
:10040C00B1E0C52DD2E008810A95003409F40AE563
:10041C000883E3DE8DD00F910FBF7F910F9108956C
:10042C007F938F939F9390EE8DEE8A95F1F79A952B
:10043C00D9F77A95C1F79F918F917F9108950F937A
:10044C000FB70F93C0E0D2E001E4099304E1AFE0F1
:10045C000993A030AA95E1F7222455247FE0E0DF30
:10046C000F910FBF0F91089557656C636F6D6521E8
:10047C00506C6561736520707265737320504430E5
:10048C00456E74657220776F72643A200F930FB7C4
:10049C000F931F9300E008BB0FEF07BB00E002BBFC
:1004AC0000E001BB00E00093620008E000936100F3
:1004BC0000E50DB901E00EB900E805BF02E40093B8
:1004CC006D0000E800936C0000E00BB908E10AB97C
:1004DC0006E00093950000E00093900007E609B950
:1004EC0006E01AEFBFD00A95E1F708E397D008E0D1
:1004FC0095D001E093D006E091D00CE08FD028D0BD
:10050C001F910F910FBF0F91089502D011D0089534
:10051C000F93EF93FF932F933F93E0E0F1E030E8DC
:10052C006BD076D03F912F91FF91EF910F91089561
:10053C000F93EF93FF932F933F93E0E1F1E030ECB7
:10054C005BD066D03F912F91FF91EF910F91089561
:10055C0002D011D008950F933F932F93EF93FF93F5
:10056C0030E84AD0E0E0F1E04CD0FF91EF912F91D0
:10057C003F910F9108950F933F932F93EF93FF9318
:10058C0030EC3AD0E0E1F1E03CD0FF91EF912F91CB
:10059C003F910F9108950F933F932F93283250F46E
:1005AC00313011F430E803C0323021F430EC320F2A
:1005BC0023D042D02F913F910F9108950F936F93B9
:1005CC005F93BF93AF93043618F023E0139607C0E4
:1005DC000A3018F022E0129602C0119621E04AD09F
:1005EC0000E3060F0E93052F0030C9F7AF91BF91B2
:1005FC005F916F910F9108950F93032F0FD00F916F
:10060C00089500E220E1019317D02A95E1F70895AF
:10061C0020E1019111D02A95E1F708954F931F9392
:10062C0040E013D00F9302E01DEC1CD00A95E1F7CB
:10063C000F911F914F9108954F931F9341E005D057
:10064C0010E110D01F914F9108954FB912E00AD0CC
:10065C000FB912E007D018E01093620010E010936D
:10066C00620008950F9309E40A95F1F71A95D9F7EA
:10067C000F9108950F92502F56955695500F5695F1
:10068C00500F569556955695500F5695500F5695AA
:10069C0056955695500F5695500F5695569556950E
:1006AC005695652F660F660F650F660F062E602F29
:1006BC0060196A3018F053956A50FBCF0F9008956B
:00000001FF
