:020000020000FC
:0200000045C0F9
:10008C0022244427552766277727882799270FEF9F
:10009C000DBF00E10EBF8ED09DD0BDD0CFD0E0EC17
:1000AC00F1E0A0E6B1E038E065D0E0EBF1E0A8E6E5
:1000BC00B1E038E05FD09BD1E0E7F1E0A0E0BEE03A
:1000CC0033E058D0E0E7F1E0A0E9B1E036E052D0FF
:1000DC0086D2D5D0E0EAF1E0A3E0BEE032E04AD02F
:1000EC00EAE3F8E0A0E4B1E036E04AD0E0ECF1E07D
:1000FC00A6E4B1E036E03ED045D3E0E5F1E0A0E483
:10010C00B1E036E037D0E0ECF1E0A6E4B1E036E067
:10011C0031D038D3E0E5F1E0A0E4B1E036E02AD00C
:10012C00E0ECF1E0A6E4B1E036E024D02BD3E0E53E
:10013C00F1E0A5E0BEE037E01DD0E0EBF1E0A0E699
:10014C00B1E038E017D0E0E5F1E0A8E6B1E038E046
:10015C0011D04DD1E0E7F1E0A0E9B1E036E00AD0F2
:10016C003ED29FD0E0EAF1E0ACE0BEE033E002D05A
:10017C000C94410401910D933A953215D9F70895D9
:10018C0005910D933A953215D9F708952D923A951C
:10019C003215E1F70895ED93FD93E62FF72FED93CC
:1001AC00FD93E82FF92FED93FD93E22DF22DED93B6
:1001BC00FD930895F8E0E8E80491A4E00A9FF8E0C4
:1001CC000AE8000D08F4F395E02FA0EBB1E034E061
:1001DC00D7DF0895E2E7F8E0A0E2B1E038E0D0DF45
:1001EC00E0EBF1E0A8E2B1E038E0C4DF4FD2F1E09F
:1001FC00E0E334E00191021559F43A953215D1F748
:10020C00E2E6F8E0ACE0BEE033E0BADF0C94410487
:10021C0060D0B1F70895E6E8A8E802E0E00FAE1769
:10022C0031F0E6E8F8E0A0ECB1E033E0A9DFE6E875
:10023C00F8E0A0ECB1E032E0A3DF0895E2E7F8E0EB
:10024C00A0E2B1E038E09CDFE0ECF1E0A8E2B1E044
:10025C0038E090DF1BD2F1E0E0E334E001910215CD
:10026C0059F43A953215D1F7E2E6F8E0A3E0BEE096
:10027C0032E086DF0C9441042CD0B1F70895F1E004
:10028C00E0EA36E00191021559F43A953215D1F7AE
:10029C00EAE6F8E0A3E0BEE032E072DF0C94410441
:1002AC000895EAE7F8E0A0E2B1E038E069DFE0EABF
:1002BC00F1E0A8E2B1E038E05DDFE8D10AD041F02E
:1002CC00EAE6F8E0ACE0BEE033E05ADF0C9441041F
:1002DC00089500E3A8E00A0FE02FF1E00081021579
:1002EC000895A0E2B1E036E045DFE42FF52FA8E257
:1002FC00B1E051DFCBD1E0E3F1E00191402F01916E
:10030C00502F0191602F0191702F0191802F01913D
:10031C00902FE0EDF1E0A0E2B1E038E02BDFE0E778
:10032C00F1E0A8E2B1E038E025DFB0D1E0E3F1E0A4
:10033C00A0E7B1E038E01EDF0895A0E0B1E036E0C0
:10034C0019DFE42FF52FA6E0B1E025DFE1D1E0E1E4
:10035C00F1E00191402F0191502F0191602F0191FB
:10036C00702F0191802F0191902FE0EDF1E0A0E032
:10037C00B1E036E0FFDEE0E7F1E0A6E0B1E036E028
:10038C00F9DEC6D1E0E1F1E0A0E7B1E038E0F2DE61
:10039C000895421559F4521549F4621539F4721541
:1003AC0029F4821519F4921509F40895E0E7F1E0A7
:1003BC00A0E4B1E036E0DEDEE0E6F1E0A6E4B1E098
:1003CC0036E0D8DEDFD1E0E5F1E0A0E2B1E038E0E4
:1003DC00D1DEE8E6F1E0A8E2B1E038E0CBDE56D1C0
:1003EC00E0E3F1E0A8E6B1E038E0C4DE08952F9236
:1003FC00BF93AF93DF93CF93FF93EF930F9322248D
:10040C00A0E7B1E038E0C2DEEAE5F8E0A0EDB1E04B
:10041C0036E0B6DE81D0BDDFE2E5F8E0A0EDB1E07C
:10042C0036E0AEDE79D0B5DFEAE4F8E0A0EDB1E07D
:10043C0036E0A6DE71D0ADDFEAE2F8E0A0EDB1E087
:10044C0036E09EDEE0E6F1E0A0E2B1E038E092DEDC
:10045C00E8E6F1E0A8E2B1E038E08CDE17D139DF54
:10046C0009F046C0E0EDF1E068DFE0EDF1E065DFBA
:10047C00E0E6F1E0A0E2B1E038E07CDEE0E3F1E0C0
:10048C00A8E2B1E038E076DE01D1F1E0E0E338E05B
:10049C000191021531F43A953215D1F701910215FB
:1004AC0027C017DF11F3E2E3F8E0A0E4B1E036E097
:1004BC0067DEE8E2F1E0A6E4B1E036E05BDE62D1B3
:1004CC00E0E6F1E0A0E2B1E038E054DEE0E5F1E096
:1004DC00A8E2B1E038E04EDED9D0FBDE49F0E0ED29
:1004EC00F1E0FFDEE0E3F1E0A0E7B1E038E042DE6E
:1004FC00E42FF52FA0E7B1E04EDE44275527662701
:10050C007727882799270F91EF91FF91CF91DF9152
:10051C00AF91BF912F9008952F92BF93AF93DF931C
:10052C00CF93FF93EF930F932224A0E7B1E038E031
:10053C002DDEE0EDF1E0A0E4B1E036E01BDEE0E61C
:10054C00F1E0A6E4B1E036E015DE1CD1E0E5F1E027
:10055C00A0E8B1E038E00EDEE8E6F1E0A8E8B1E0B2
:10056C0038E008DEE0E8F1E0A0E2B1E038E002DEDD
:10057C00E8E8F1E0A8E2B1E038E0FCDD87D0A9DEE4
:10058C0009F024C0E0EDF1E0D8DEE0EDF1E0D5DEDD
:10059C00E0E8F1E0A0E2B1E038E0ECDDE0E3F1E02E
:1005AC00A8E2B1E038E0E6DD71D0F1E0E0E338E05C
:1005BC000191021531F43A953215D1F701910215DA
:1005CC0005C087DE11F3E0EDF1E08BDE0F91EF91CA
:1005DC00FF91CF91DF91AF91BF912F9008952F9202
:1005EC00BF93AF93DF93CF93FF93EF930F9322249B
:1005FC00A0EAB1E036E0CADDE2E4F8E0A0EDB1E05B
:10060C0036E0BEDD1BD0EAE2F8E0A0EDB1E036E06A
:10061C00B7DD14D0E42FF52FA0EAB1E0BCDD442700
:10062C00552766277727882799270F91EF91FF91F8
:10063C00CF91DF91AF91BF912F900895E42FF52FBB
:10064C00A0E4B1E0A8DDE42FF52FA6E4B1E0A3DD32
:10065C0099D0E0E5F1E0A0E2B1E038E08BDDE0E933
:10066C00F1E0A8E2B1E038E085DD10D032DE21F413
:10067C00E0EDF1E062DEE2CFE0EDF1E032DEE0E36E
:10068C00F1E0A0EAB1E036E075DD08952F92BF935A
:10069C00AF93DF93CF93FF93EF930F934F935F93AE
:1006AC002224A0E3B1E039E071DDA0E2B1E0C8E2C0
:1006BC00D1E0E0E3F1E04D915991541B51934D91F0
:1006CC005991540B51934D915991540B51934D9108
:1006DC005991540B51934D915991540B51934D91F8
:1006EC005991540B51934D915991540B51934C91E9
:1006FC005881540B519308F4B0835F914F910F9133
:10070C00EF91FF91CF91DF91AF91BF912F90089511
:10071C002F92BF93AF93DF93CF93FF93EF930F93EE
:10072C004F935F932224A0E1B1E037E02FDDA0E0EE
:10073C00B1E0C6E0D1E0E0E1F1E04D915991540F08
:10074C0051934D915991541F51934D915991541F5F
:10075C0051934D915991541F51934D915991541F4F
:10076C0051934C915881541F519308F4B0835F916D
:10077C004F910F91EF91FF91CF91DF91AF91BF917D
:10078C002F9008953F924F921F920F922F92BF93EA
:10079C00AF93DF93CF93FF93EF931F932F930F930D
:1007AC004F935F932224A0E5B1E03CE0EFDCC6E47C
:1007BC00D1E0E0E5F1E016E0A0E4B1E026E03D9008
:1007CC004880349C31904190030C141C3190321CA5
:1007DC004190421C0191021D4191421D5081521DBC
:1007EC005083429302934292329212920292319629
:1007FC002A9529F7359721961A95F1F65F914F9125
:10080C000F912F911F91EF91FF91CF91DF91AF91AC
:10081C00BF912F900F901F904F903F900895010023
:10082C000000000000000200000000000000280092
:10083C00000000000000000100000000000000109B
:10084C00000000000000000000010000000000009B
:10085C00000010000000FFFFFFFFFFFFFFFFFEFF87
:10086C00FFFFFFFFFFFFE80300000000000019007E
:10087C000000000000000000FECF641902000E56BC
:10088C00000024F50400081506004EA700003013E4
:10089C008D07F8C74202D0685800384B6800FFFF3C
:0208AC00FFFF4C
:00000001FF
